{
  "contractName": "YarockToken",
  "abi": [
    {
      "inputs": [],
      "payable": false,
      "stateMutability": "nonpayable",
      "type": "constructor"
    },
    {
      "constant": true,
      "inputs": [],
      "name": "totalSupply",
      "outputs": [
        {
          "internalType": "uint256",
          "name": "",
          "type": "uint256"
        }
      ],
      "payable": false,
      "stateMutability": "view",
      "type": "function"
    }
  ],
  "bytecode": "0x6080604052348015600f57600080fd5b50620f42406000819055506084806100286000396000f3fe6080604052348015600f57600080fd5b506004361060285760003560e01c806318160ddd14602d575b600080fd5b60336049565b6040518082815260200191505060405180910390f35b6000548156fea265627a7a723158201d5ebf31a25ce655987e1eb508560cea59a106d778e6d8ed92bd2544a7e63e2f64736f6c63430005100032",
  "source": "pragma solidity ^0.5.16;\n\ncontract YarockToken{\n\t//Constructor \n\t//Set total number of tokens\n\t//Read the total number of tokens\n\tuint public totalSupply;\n\tconstructor() public{\n\t\ttotalSupply=1000000;\n\t}\n }\n",
  "sourcePath": "/Users/Kantemirovs/token_sale/contracts/YarockToken.sol",
  "compiler": {
    "name": "solc",
    "version": "0.5.16+commit.9c3226ce.Emscripten.clang"
  },
  "schemaVersion": "3.3.3",
  "updatedAt": "2020-12-28T23:39:58.158Z",
  "networkType": "ethereum",
  "devdoc": {
    "methods": {}
  },
  "userdoc": {
    "methods": {}
  }
}